:100000000C9463000C948B000C948B000C948B006C
:100010000C948B000C948B000C948B000C948B0034
:100020000C948B000C948B000C948B000C948B0024
:100030000C948B000C948B000C948B000C948B0014
:100040000C9456030C948B000C9432080C946408A6
:100050000C948B000C948B000C948B000C948B00F4
:100060000C948B000C948B0000000008000201002F
:100070000003040700000000000000000102040863
:100080001020408001020408102001020408102002
:10009000040404040404040402020202020203032E
:1000A00003030303000000002300260029000000D2
:1000B0000000250028002B0000000000240027007D
:1000C0002A000F03940811241FBECFEFD8E0DEBF33
:1000D000CDBF11E0A0E0B1E0E0E4F6E102C00590A0
:1000E0000D92A434B107D9F721E0A4E4B1E001C036
:1000F0001D92AC3FB207E1F710E0C6ECD0E004C0BF
:100100002297FE010E941A0BC23CD107C9F70E9438
:10011000DE060C941E0B0C940000FC0171836083BE
:10012000538342830895CF92DF92EF92FF920F9311
:100130001F93CF93DF93C62ED42E790100E010E0F9
:10014000C0E0D0E00E151F05C4F461E08D2D0E94C3
:100150009B046AE070E080E090E00E94C303CC0F53
:10016000DD1F8C2D0E94D104C80FD91F60E08D2D9A
:100170000E949B040F5F1F4FE5CFCE01DF91CF910F
:100180001F910F91FF90EF90DF90CF9008951F93F4
:10019000CF93DF93162FC42FD22F61E0842F0E94BC
:1001A000620461E08D2F0E94620461E08C2F0E9446
:1001B0009B0461E08D2F0E949B0460E08C2F0E94C5
:1001C0009B0460E08D2F0E949B0461E08D2F0E94B4
:1001D0009B0461E08C2F0E949B0460E08D2F0E94A5
:1001E0009B04212F41E06D2F8C2F0E94170361E0AB
:1001F0008D2F0E949B0460E08C2F0E9462048C2F44
:100200000E94D10460E08D2F0E949B048C2FDF910F
:10021000CF911F910C94D1041F93CF93DF93162F8E
:1002200060E0812F0E946204C4E6D0E06AE070E0E2
:1002300080E090E00E94C303812F0E94D104892BAB
:1002400011F0219799F7DF91CF911F910895CF92E7
:10025000DF92EF92FF920F931F93CF93DF938C0166
:10026000F62ED72EE42EC52E60E08F2D0E9462045C
:1002700061E08E2D0E94620428E030E04E2D5C2D5E
:100280006F2D7D2DC8010E949300D82F80E0C82FCC
:1002900061E08F2D0E94620461E08F2D0E949B041B
:1002A00060E08F2D0E949B0461E08E2D0E949B04D4
:1002B00060E08E2D0E949B0460E08F2D0E946204FE
:1002C00028E030E04E2D5C2D6F2D7D2DC8010E9461
:1002D00093008C2B9D2BDF91CF911F910F91FF905D
:1002E000EF90DF90CF900895CF93DF93D62FC42F58
:1002F00061E08D2F0E94620461E08C2F0E946204F5
:1003000061E08D2F0E949B0461E08C2F0E949B0472
:1003100060E08C2FDF91CF910C949B040F931F937F
:10032000CF93DF93EC012A813B814881598163E0BF
:1003300070E00E94C70068817981CE010E940C01A3
:100340004A815B8168817981CE010E9427018C01FD
:100350004A815B8168817981CE010E947401B80174
:10036000882777FD8095982F0E94DB09DF91CF9138
:100370001F910F9108950E948E010E94A80988275D
:1003800077FD8095982F0E94DB092AE037ED43E244
:100390005CE30E948F0A20E030E040E252E40E94D9
:1003A000D70808950E948E010E94A809882777FD2A
:1003B0008095982F0E94DB092CEB34E743E95CE33E
:1003C0000E948F0A20E030E040E252E40E94D70809
:1003D00008954F925F926F927F928F929F92AF9209
:1003E000BF92CF92DF92EF92FF92CF93DF93EC0117
:1003F0002A813B814881598165E070E00E94C700F5
:1004000068817981CE010E940C014A815B816881FB
:100410007981CE010E9427017C014A815B8168813C
:100420007981CE010E947401B701882777FD8095FC
:10043000982F0E94DB096B017C0124E533EE45E235
:100440005DE30E948F0A20E030E040E850E40E9423
:10045000D7084B015C0122EA37EE4BE356EBC701AC
:10046000B6010E948F0AA70196010E948F0A9B0184
:10047000AC01C501B4010E94D8084B015C01CE015A
:100480000E94BB0120E030E048EC51E40E94D70814
:100490002B013C012CEA35EC47EA58E3C701B601D1
:1004A0000E948F0A2AE037ED43E25CE30E94D808FD
:1004B0009B01AC01C301B2010E948F0AA501940106
:1004C0000E94D808DF91CF91FF90EF90DF90CF90FE
:1004D000BF90AF909F908F907F906F905F904F9064
:1004E00008950F931F93CF93DF9326E040E855E2E2
:1004F00060E070E08FE591E00E94D00702E011E03B
:1005000061E0F80180810E946204C0E0D1E061E016
:1005100088810E94620461E0F80180810E949B044E
:1005200060E08881DF91CF911F910F910C949B0423
:1005300084E491E00E94BB016093520170935301E7
:10054000809354019093550184E491E00E94D2017C
:1005500060934E0170934F0180935001909351012D
:1005600084E491E00E94E90160934A0170934B0199
:1005700080934C0190934D01089564E071E08FE504
:1005800091E00E94380540914E0150914F016091D9
:1005900050017091510122E030E08FE591E00E941E
:1005A000DB066DE071E08FE591E00E943805409137
:1005B000520150915301609154017091550122E014
:1005C00030E08FE591E00E94DB0661E171E08FE5AC
:1005D00091E00E94450563E171E08FE591E00E94A2
:1005E000380540914A0150914B0160914C01709146
:1005F0004D0122E030E08FE591E00E94DB0660E2F1
:1006000071E08FE591E00C9445050E9498020E94EC
:10061000BD0268EE73E080E090E00C94C30343E118
:1006200050E062E170E084E491E00C948D00BF92B0
:10063000CF92DF92EF92FF920F931F93CF93DF93AE
:10064000C82ED62EB42EC7E0D0E0022F10E087E0EF
:10065000E82EF12CB1100AC0F701EC1BFD0BB8011C
:1006600002C075956795EA95E2F707C0B8010C2EB0
:1006700002C0759567950A94E2F7617077278C2D13
:100680000E949B0461E08D2D0E949B0460E08D2DF3
:100690000E949B042197F0F6DF91CF911F910F915B
:1006A000FF90EF90DF90CF90BF9008951F920F9230
:1006B0000FB60F9211242F933F938F939F93AF9375
:1006C000BF938091570190915801A0915901B09129
:1006D0005A013091560123E0230F2D3720F4019663
:1006E000A11DB11D05C026E8230F0296A11DB11D55
:1006F000209356018093570190935801A09359017C
:10070000B0935A0180915B0190915C01A0915D01D1
:10071000B0915E010196A11DB11D80935B01909384
:100720005C01A0935D01B0935E01BF91AF919F9179
:100730008F913F912F910F900FBE0F901F901895A2
:100740003FB7F89480915B0190915C01A0915D01AD
:10075000B0915E0126B5A89B05C02F3F19F0019608
:10076000A11DB11D3FBF6627782F892F9A2F620FD9
:10077000711D811D911D42E0660F771F881F991F13
:100780004A95D1F708958F929F92AF92BF92CF92E0
:10079000DF92EF92FF926B017C010E94A0034B015C
:1007A0005C01C114D104E104F104F1F00E943804A9
:1007B0000E94A003681979098A099B09683E734061
:1007C0008105910570F321E0C21AD108E108F10812
:1007D00088EE880E83E0981EA11CB11CC114D104C0
:1007E000E104F10429F7DDCFFF90EF90DF90CF9087
:1007F000BF90AF909F908F900895789484B5826059
:1008000084BD84B5816084BD85B5826085BD85B5B4
:10081000816085BDEEE6F0E0808181608083E1E863
:10082000F0E010828081826080838081816080839B
:10083000E0E8F0E0808181608083E1EBF0E080819E
:1008400084608083E0EBF0E0808181608083EAE770
:10085000F0E08081846080838081826080838081F9
:10086000816080838081806880831092C1000895B8
:100870000895833081F028F4813099F08230A1F01E
:1008800008958730A9F08830B9F08430D1F4809190
:1008900080008F7D03C0809180008F7780938000DF
:1008A000089584B58F7702C084B58F7D84BD089587
:1008B0008091B0008F7703C08091B0008F7D8093CE
:1008C000B0000895CF93DF9390E0FC01E458FF4F10
:1008D0002491FC01E057FF4F8491882349F190E077
:1008E000880F991FFC01E854FF4FA591B4918255E0
:1008F0009F4FFC01C591D4919FB7611108C0F89436
:100900008C91209582238C93888182230AC0623047
:1009100051F4F8948C91322F309583238C938881F5
:10092000822B888304C0F8948C91822B8C939FBF78
:10093000DF91CF9108950F931F93CF93DF931F9271
:10094000CDB7DEB7282F30E0F901E859FF4F849189
:10095000F901E458FF4F1491F901E057FF4F04915A
:100960000023C9F0882321F069830E94390469813A
:10097000E02FF0E0EE0FFF1FE255FF4FA591B4917D
:100980009FB7F8948C91611103C01095812301C029
:10099000812B8C939FBF0F90DF91CF911F910F916F
:1009A0000895CF93DF93282F30E0F901E859FF4FE6
:1009B0008491F901E458FF4FD491F901E057FF4FBA
:1009C000C491CC2391F081110E943904EC2FF0E006
:1009D000EE0FFF1FEC55FF4FA591B4912C912D23E5
:1009E00081E090E021F480E002C080E090E0DF91BF
:1009F000CF910895CF92DF92EF92FF920F931F93C2
:100A0000CF93DF937C016A01EB0100E010E00C154D
:100A10001D0571F06991D701ED91FC910190F08174
:100A2000E02DC7010995892B19F00F5F1F4FEFCFFC
:100A3000C801DF91CF911F910F91FF90EF90DF9050
:100A4000CF9008956115710581F0DB010D900020B4
:100A5000E9F7AD0141505109461B570BDC01ED91FF
:100A6000FC910280F381E02D099480E090E00895EC
:100A70000C942205DC01ED91FC910190F081E02DB8
:100A8000099462E271E00C9422050F931F93CF93B7
:100A9000DF93EC010E9422058C01CE010E944105EA
:100AA000800F911FDF91CF911F910F9108958F9229
:100AB0009F92AF92BF92DF92EF92FF920F931F939C
:100AC000CF93DF93CDB7DEB7A1970FB6F894DEBF13
:100AD0000FBECDBF7C01F42FD52ECB0119A2223041
:100AE00008F42AE08E010F5D1F4F822E912CA12C5D
:100AF000B12C6F2F7D2DA50194010E94F60AF22FD3
:100B0000D32ECA01015011096A3014F4E0E301C088
:100B1000E7E3E60FD801EC93232B242B252B49F791
:100B2000B801C7010E942205A1960FB6F894DEBF56
:100B30000FBECDBFDF91CF911F910F91FF90EF902E
:100B4000DF90BF90AF909F908F900895CF92DF92EB
:100B5000EF92FF920F931F93CF93DF93EC016A0103
:100B60007B012115310579F4E881F9810190F0814B
:100B7000E02D642FDF91CF911F910F91FF90EF90A7
:100B8000DF90CF9009942A303105E9F477FF1AC03D
:100B90006DE20E943A058C0144275527BA014C1991
:100BA0005D096E097F092AE0CE010E945705800F7A
:100BB000911FDF91CF911F910F91FF90EF90DF90E8
:100BC000CF9008952AE0B701A601CE01DF91CF9121
:100BD0001F910F91FF90EF90DF90CF900C945705ED
:100BE0004F925F926F927F928F929F92AF92BF923D
:100BF000CF92DF92EF92FF920F931F93CF93DF93E9
:100C0000EC016A017B01B22E9A01AB01C701B6016A
:100C10000E94F20A882319F065E271E027C02601DC
:100C20003701E89477F82FEF3FEF4FE75FE7C30115
:100C3000B2010E94F20A81110DC02FEF3FEF4FE782
:100C40005FE7C301B2010E943C0918161CF469E277
:100C500071E00CC02FEF3FEF4FE75FE4C701B60133
:100C60000E948B0A1816ACF46DE271E0CE01DF91A0
:100C7000CF911F910F91FF90EF90DF90CF90BF9099
:100C8000AF909F908F907F906F905F904F900C945B
:100C900022052FEF3FEF4FE75FECC701B6010E943F
:100CA0003C0987FDE1CF20E030E0A901C701B60192
:100CB0000E943C0987FF0AC06DE2CE010E943A05FE
:100CC0008C01F7FAF094F7F8F09402C000E010E01D
:100CD000A12C60E070E080E09FE3AB1441F020E0E5
:100CE00030E040E251E40E944009A394F6CF9B011A
:100CF000AC01C701B6010E94D8086B017C010E94BB
:100D0000AD092B013C010E94D9099B01AC01C7012F
:100D1000B6010E94D7086B017C012AE0B301A20151
:100D2000CE010E945705080F191FBB2039F061E35F
:100D300071E0CE010E942205080F191F7B2C77203D
:100D400041F120E030E040E251E4C701B6010E94E9
:100D50008F0A6B017C010E94A8094B01AA2497FC11
:100D6000A094BA2C2AE030E0B501A401CE010E9483
:100D7000A605080F191FC501B4010E94DB099B01DC
:100D8000AC01C701B6010E94D7086B017C017A94BF
:100D9000D6CFC801DF91CF911F910F91FF90EF90B7
:100DA000DF90CF90BF90AF909F908F907F906F908B
:100DB0005F904F9008950C94F00508950E94FD03F4
:100DC0000E94DD060E947102CAE1D7E00E9405037D
:100DD0002097E1F30E941A07F9CFFC01818D228D43
:100DE00090E0805C9F4F821B91098F739927089533
:100DF000FC01918D828D981731F0828DE80FF11DE5
:100E0000858D90E008958FEF9FEF0895FC01918DFF
:100E1000828D981761F0828DDF01A80FB11D5D965C
:100E20008C91928D9F5F9F73928F90E008958FEFCA
:100E30009FEF08958AE898E0892B49F080E090E0E0
:100E4000892B29F00E948A0881110C9400000895D2
:100E5000FC01848DDF01A80FB11DA35ABF4F2C9157
:100E6000848D90E001968F739927848FA689B78926
:100E70002C93A089B1898C9180648C93938D848DFF
:100E8000981306C00288F389E02D80818F7D8083CE
:100E90000895CF93DF93EC01888D8823C9F0EA8908
:100EA000FB89808185FD05C0A889B9898C9186FD63
:100EB0000FC00FB607FCF5CF808185FFF2CFA88960
:100EC000B9898C9185FFEDCFCE010E942807E7CF2D
:100ED000DF91CF910895CF92DF92FF920F931F93EE
:100EE000CF93DF931F92CDB7DEB76C0181E0D601BF
:100EF00058968C9358975B969C915B975C968C91D7
:100F00005C97981307C05096ED91FC9151978081A2
:100F100085FD2EC0F601038D10E00F5F1F4F0F738C
:100F20001127F02EF601848DF81211C00FB607FCC0
:100F3000F9CFD6015096ED91FC915197808185FFB4
:100F4000F1CFC60169830E9428076981EBCF838DA9
:100F5000E80FF11DE35AFF4F6083D6015B960C93B7
:100F60005B975296ED91FC915397808180620CC003
:100F7000D6015696ED91FC91579760835096ED916E
:100F8000FC91519780818064808381E090E00F9094
:100F9000DF91CF911F910F91FF90DF90CF90089537
:100FA000BF92CF92DF92EF92FF92CF93DF93EC014B
:100FB0006A017B01B22EE889F98982E080834115BC
:100FC00081EE580761057105A1F060E079E08DE3DD
:100FD00090E0A70196010E94F60A215031094109CB
:100FE00051095695479537952795211580E1380782
:100FF00098F0E889F989108260E874E88EE190E061
:10100000A70196010E94F60A2150310941095109B0
:101010005695479537952795EC85FD853083EE8568
:10102000FF852083188EEC89FD89B082EA89FB89CF
:10103000808180618083EA89FB89808188608083E8
:10104000EA89FB89808180688083EA89FB898081C5
:101050008F7D8083DF91CF91FF90EF90DF90CF90D5
:10106000BF9008951F920F920FB60F9211242F93E5
:101070008F939F93EF93FF93E0916F01F091700135
:101080008081E0917501F091760182FD12C090811E
:10109000809178018F5F8F7320917901821751F0D1
:1010A000E0917801F0E0E15AFE4F958F809378014E
:1010B00001C08081FF91EF919F918F912F910F90AF
:1010C0000FBE0F901F9018951F920F920FB60F92A0
:1010D00011242F933F934F935F936F937F938F933D
:1010E0009F93AF93BF93EF93FF938FE591E00E949F
:1010F0002807FF91EF91BF91AF919F918F917F91C1
:101100006F915F914F913F912F910F900FBE0F9074
:101110001F9018958FE591E00E94ED0621E0892B44
:1011200009F420E0822F089510926201109261016B
:1011300088EE93E0A0E0B0E08093630190936401B7
:10114000A0936501B093660187E391E090936001FD
:1011500080935F0185EC90E090936C0180936B012C
:1011600084EC90E090936E0180936D0180EC90E0B0
:101170009093700180936F0181EC90E090937201E5
:101180008093710182EC90E09093740180937301DD
:1011900086EC90E09093760180937501109278012F
:1011A0001092790110927A0110927B0108955058A3
:1011B000BB27AA270ED075C166D130F06BD120F0C5
:1011C00031F49F3F11F41EF45BC10EF4E095E7FB90
:1011D00051C1E92F77D180F3BA17620773078407EB
:1011E000950718F071F49EF58FC10EF4E0950B2E63
:1011F000BA2FA02D0B01B90190010C01CA01A00169
:101200001124FF27591B99F0593F50F4503E68F1C3
:101210001A16F040A22F232F342F4427585FF3CF04
:10122000469537952795A795F0405395C9F77EF4D5
:101230001F16BA0B620B730B840BBAF09150A1F01E
:10124000FF0FBB1F661F771F881FC2F70EC0BA0FA4
:10125000621F731F841F48F4879577956795B7952C
:10126000F7959E3F08F0B3CF9395880F08F0992724
:10127000EE0F979587950895D9D008F481E00895E9
:101280000CD00FC107D140F0FED030F021F45F3F09
:1012900019F0F0C0511139C1F3C014D198F399235A
:1012A000C9F35523B1F3951B550BBB27AA2762172A
:1012B0007307840738F09F5F5F4F220F331F441F6F
:1012C000AA1FA9F333D00E2E3AF0E0E830D09150A7
:1012D0005040E695001CCAF729D0FE2F27D0660F94
:1012E000771F881FBB1F261737074807AB07B0E8D3
:1012F00009F0BB0B802DBF01FF2793585F4F2AF0E9
:101300009E3F510568F0B6C000C15F3FECF3983EC8
:10131000DCF3869577956795B795F7959F5FC9F745
:10132000880F911D9695879597F90895E1E0660FCE
:10133000771F881FBB1F621773078407BA0720F047
:10134000621B730B840BBA0BEE1F88F7E0950895B0
:1013500004D06894B111D9C00895BCD088F09F57CB
:1013600090F0B92F9927B751A0F0D1F0660F771FF1
:10137000881F991F1AF0BA95C9F712C0B13081F0D1
:10138000C3D0B1E00895C0C0672F782F8827B85F19
:1013900039F0B93FCCF3869577956795B395D9F732
:1013A0003EF490958095709561957F4F8F4F9F4F3C
:1013B0000895E89409C097FB3EF490958095709548
:1013C00061957F4F8F4F9F4F9923A9F0F92F96E991
:1013D000BB279395F695879577956795B795F11106
:1013E000F8CFFAF4BB0F11F460FF1BC06F5F7F4FA3
:1013F0008F4F9F4F16C0882311F096E911C07723B5
:1014000021F09EE8872F762F05C0662371F096E8BD
:10141000862F70E060E02AF09A95660F771F881F8C
:10142000DAF7880F9695879597F90895990F000830
:10143000550FAA0BE0E8FEEF16161706E807F907A6
:10144000C0F012161306E407F50798F0621B730B41
:10145000840B950B39F40A2661F0232B242B252BC2
:1014600021F408950A2609F4A140A6958FEF811D65
:10147000811D089597F99F6780E870E060E0089506
:101480009FEF80EC089500240A941616170618069C
:101490000906089500240A94121613061406050678
:1014A0000895092E0394000C11F4882352F0BB0F09
:1014B00040F4BF2B11F460FF04C06F5F7F4F8F4F6C
:1014C0009F4F089557FD9058440F551F59F05F3FA7
:1014D00071F04795880F97FB991F61F09F3F79F056
:1014E00087950895121613061406551FF2CF4695D8
:1014F000F1DF08C0161617061806991FF1CF86955A
:101500007105610508940895E894BB27662777273D
:10151000CB0197F908958ADF08F48FEF08950BD077
:10152000C0CFB1DF28F0B6DF18F0952309F0A2CFC5
:10153000A7CF1124EACFC6DFA0F3959FD1F3950F73
:1015400050E0551F629FF001729FBB27F00DB11D47
:10155000639FAA27F00DB11DAA1F649F6627B00DD7
:10156000A11D661F829F2227B00DA11D621F739FC0
:10157000B00DA11D621F839FA00D611D221F749FCE
:101580003327A00D611D231F849F600D211D822F15
:10159000762F6A2F11249F5750408AF0E1F088235C
:1015A0004AF0EE0FFF1FBB1F661F771F881F915069
:1015B0005040A9F79E3F510570F05CCFA6CF5F3F2A
:1015C000ECF3983EDCF3869577956795B795F7959C
:1015D000E7959F5FC1F7FE2B880F911D9695879524
:1015E00097F9089523DF880B990B0895A1E21A2E2D
:1015F000AA1BBB1BFD010DC0AA1FBB1FEE1FFF1FB7
:10160000A217B307E407F50720F0A21BB30BE40B06
:10161000F50B661F771F881F991F1A9469F760954D
:101620007095809590959B01AC01BD01CF01089507
:10163000EE0FFF1F0590F491E02D0994F894FFCF71
:10164000100011002054656D70203D2000462C20B4
:101650000043002048756D6964697479203D20005D
:1016600025000D0A006E616E00696E66006F766679
:10167000002E00000000006B07FA04ED060607F8D4
:041680000649070010
:00000001FF
